{
  "_format": "hh-sol-artifact-1",
  "contractName": "Moonboi",
  "sourceName": "contracts/Moonboi.sol",
  "abi": [
    {
      "inputs": [],
      "stateMutability": "nonpayable",
      "type": "constructor"
    },
    {
      "anonymous": false,
      "inputs": [
        {
          "indexed": true,
          "internalType": "address",
          "name": "owner",
          "type": "address"
        },
        {
          "indexed": true,
          "internalType": "address",
          "name": "spender",
          "type": "address"
        },
        {
          "indexed": false,
          "internalType": "uint256",
          "name": "value",
          "type": "uint256"
        }
      ],
      "name": "Approval",
      "type": "event"
    },
    {
      "anonymous": false,
      "inputs": [
        {
          "indexed": true,
          "internalType": "address",
          "name": "previousOwner",
          "type": "address"
        },
        {
          "indexed": true,
          "internalType": "address",
          "name": "newOwner",
          "type": "address"
        }
      ],
      "name": "OwnershipTransferred",
      "type": "event"
    },
    {
      "anonymous": false,
      "inputs": [
        {
          "indexed": true,
          "internalType": "address",
          "name": "from",
          "type": "address"
        },
        {
          "indexed": true,
          "internalType": "address",
          "name": "to",
          "type": "address"
        },
        {
          "indexed": false,
          "internalType": "uint256",
          "name": "value",
          "type": "uint256"
        }
      ],
      "name": "Transfer",
      "type": "event"
    },
    {
      "inputs": [
        {
          "internalType": "address",
          "name": "owner",
          "type": "address"
        },
        {
          "internalType": "address",
          "name": "spender",
          "type": "address"
        }
      ],
      "name": "allowance",
      "outputs": [
        {
          "internalType": "uint256",
          "name": "",
          "type": "uint256"
        }
      ],
      "stateMutability": "view",
      "type": "function"
    },
    {
      "inputs": [
        {
          "internalType": "address",
          "name": "spender",
          "type": "address"
        },
        {
          "internalType": "uint256",
          "name": "amount",
          "type": "uint256"
        }
      ],
      "name": "approve",
      "outputs": [
        {
          "internalType": "bool",
          "name": "",
          "type": "bool"
        }
      ],
      "stateMutability": "nonpayable",
      "type": "function"
    },
    {
      "inputs": [
        {
          "internalType": "address",
          "name": "account",
          "type": "address"
        }
      ],
      "name": "balanceOf",
      "outputs": [
        {
          "internalType": "uint256",
          "name": "",
          "type": "uint256"
        }
      ],
      "stateMutability": "view",
      "type": "function"
    },
    {
      "inputs": [],
      "name": "decimals",
      "outputs": [
        {
          "internalType": "uint8",
          "name": "",
          "type": "uint8"
        }
      ],
      "stateMutability": "view",
      "type": "function"
    },
    {
      "inputs": [
        {
          "internalType": "address",
          "name": "spender",
          "type": "address"
        },
        {
          "internalType": "uint256",
          "name": "subtractedValue",
          "type": "uint256"
        }
      ],
      "name": "decreaseAllowance",
      "outputs": [
        {
          "internalType": "bool",
          "name": "",
          "type": "bool"
        }
      ],
      "stateMutability": "nonpayable",
      "type": "function"
    },
    {
      "inputs": [
        {
          "internalType": "bytes32",
          "name": "_messageHash",
          "type": "bytes32"
        }
      ],
      "name": "getEthSignedMessageHash",
      "outputs": [
        {
          "internalType": "bytes32",
          "name": "",
          "type": "bytes32"
        }
      ],
      "stateMutability": "pure",
      "type": "function"
    },
    {
      "inputs": [
        {
          "internalType": "address",
          "name": "_to",
          "type": "address"
        },
        {
          "internalType": "uint256",
          "name": "_amount",
          "type": "uint256"
        },
        {
          "internalType": "uint256",
          "name": "_nonce",
          "type": "uint256"
        }
      ],
      "name": "getMessageHash",
      "outputs": [
        {
          "internalType": "bytes32",
          "name": "",
          "type": "bytes32"
        }
      ],
      "stateMutability": "view",
      "type": "function"
    },
    {
      "inputs": [
        {
          "internalType": "address",
          "name": "spender",
          "type": "address"
        },
        {
          "internalType": "uint256",
          "name": "addedValue",
          "type": "uint256"
        }
      ],
      "name": "increaseAllowance",
      "outputs": [
        {
          "internalType": "bool",
          "name": "",
          "type": "bool"
        }
      ],
      "stateMutability": "nonpayable",
      "type": "function"
    },
    {
      "inputs": [],
      "name": "name",
      "outputs": [
        {
          "internalType": "string",
          "name": "",
          "type": "string"
        }
      ],
      "stateMutability": "view",
      "type": "function"
    },
    {
      "inputs": [],
      "name": "owner",
      "outputs": [
        {
          "internalType": "address",
          "name": "",
          "type": "address"
        }
      ],
      "stateMutability": "view",
      "type": "function"
    },
    {
      "inputs": [
        {
          "internalType": "bytes32",
          "name": "_ethSignedMessageHash",
          "type": "bytes32"
        },
        {
          "internalType": "bytes",
          "name": "_signature",
          "type": "bytes"
        }
      ],
      "name": "recoverSigner",
      "outputs": [
        {
          "internalType": "address",
          "name": "",
          "type": "address"
        }
      ],
      "stateMutability": "pure",
      "type": "function"
    },
    {
      "inputs": [],
      "name": "renounceOwnership",
      "outputs": [],
      "stateMutability": "nonpayable",
      "type": "function"
    },
    {
      "inputs": [
        {
          "internalType": "bytes",
          "name": "sig",
          "type": "bytes"
        }
      ],
      "name": "splitSignature",
      "outputs": [
        {
          "internalType": "bytes32",
          "name": "r",
          "type": "bytes32"
        },
        {
          "internalType": "bytes32",
          "name": "s",
          "type": "bytes32"
        },
        {
          "internalType": "uint8",
          "name": "v",
          "type": "uint8"
        }
      ],
      "stateMutability": "pure",
      "type": "function"
    },
    {
      "inputs": [],
      "name": "symbol",
      "outputs": [
        {
          "internalType": "string",
          "name": "",
          "type": "string"
        }
      ],
      "stateMutability": "view",
      "type": "function"
    },
    {
      "inputs": [],
      "name": "totalSupply",
      "outputs": [
        {
          "internalType": "uint256",
          "name": "",
          "type": "uint256"
        }
      ],
      "stateMutability": "view",
      "type": "function"
    },
    {
      "inputs": [
        {
          "internalType": "address",
          "name": "recipient",
          "type": "address"
        },
        {
          "internalType": "uint256",
          "name": "amount",
          "type": "uint256"
        }
      ],
      "name": "transfer",
      "outputs": [
        {
          "internalType": "bool",
          "name": "",
          "type": "bool"
        }
      ],
      "stateMutability": "nonpayable",
      "type": "function"
    },
    {
      "inputs": [
        {
          "internalType": "address",
          "name": "sender",
          "type": "address"
        },
        {
          "internalType": "address",
          "name": "recipient",
          "type": "address"
        },
        {
          "internalType": "uint256",
          "name": "amount",
          "type": "uint256"
        }
      ],
      "name": "transferFrom",
      "outputs": [
        {
          "internalType": "bool",
          "name": "",
          "type": "bool"
        }
      ],
      "stateMutability": "nonpayable",
      "type": "function"
    },
    {
      "inputs": [
        {
          "internalType": "address",
          "name": "newOwner",
          "type": "address"
        }
      ],
      "name": "transferOwnership",
      "outputs": [],
      "stateMutability": "nonpayable",
      "type": "function"
    },
    {
      "inputs": [
        {
          "internalType": "uint256",
          "name": "_amount",
          "type": "uint256"
        },
        {
          "internalType": "uint256",
          "name": "_nonce",
          "type": "uint256"
        },
        {
          "internalType": "bytes",
          "name": "signature",
          "type": "bytes"
        }
      ],
      "name": "verify",
      "outputs": [
        {
          "internalType": "bool",
          "name": "",
          "type": "bool"
        }
      ],
      "stateMutability": "view",
      "type": "function"
    }
  ],
  "bytecode": "0x60806040523480156200001157600080fd5b506040518060400160405280600d81526020017f4d6f6f6e626f6920546f6b656e000000000000000000000000000000000000008152506040518060400160405280600381526020017f4d42540000000000000000000000000000000000000000000000000000000000815250816003908051906020019062000096929190620001a6565b508060049080519060200190620000af929190620001a6565b505050620000d2620000c6620000d860201b60201c565b620000e060201b60201c565b620002bb565b600033905090565b6000600560009054906101000a900473ffffffffffffffffffffffffffffffffffffffff16905081600560006101000a81548173ffffffffffffffffffffffffffffffffffffffff021916908373ffffffffffffffffffffffffffffffffffffffff1602179055508173ffffffffffffffffffffffffffffffffffffffff168173ffffffffffffffffffffffffffffffffffffffff167f8be0079c531659141344cd1fd0a4f28419497f9722a3daafe3b4186f6b6457e060405160405180910390a35050565b828054620001b49062000256565b90600052602060002090601f016020900481019282620001d8576000855562000224565b82601f10620001f357805160ff191683800117855562000224565b8280016001018555821562000224579182015b828111156200022357825182559160200191906001019062000206565b5b50905062000233919062000237565b5090565b5b808211156200025257600081600090555060010162000238565b5090565b600060028204905060018216806200026f57607f821691505b602082108114156200028657620002856200028c565b5b50919050565b7f4e487b7100000000000000000000000000000000000000000000000000000000600052602260045260246000fd5b611fac80620002cb6000396000f3fe608060405234801561001057600080fd5b50600436106101215760003560e01c806395d89b41116100ad578063b857e38611610071578063b857e38614610348578063d2b0737b14610378578063dd62ed3e146103a8578063f2fde38b146103d8578063fa540801146103f457610121565b806395d89b411461026857806397aba7f914610286578063a457c2d7146102b6578063a7bb5803146102e6578063a9059cbb1461031857610121565b8063313ce567116100f4578063313ce567146101c257806339509351146101e057806370a0823114610210578063715018a6146102405780638da5cb5b1461024a57610121565b806306fdde0314610126578063095ea7b31461014457806318160ddd1461017457806323b872dd14610192575b600080fd5b61012e610424565b60405161013b91906117ec565b60405180910390f35b61015e600480360381019061015991906112c2565b6104b6565b60405161016b919061173a565b60405180910390f35b61017c6104d4565b604051610189919061194e565b60405180910390f35b6101ac60048036038101906101a79190611273565b6104de565b6040516101b9919061173a565b60405180910390f35b6101ca6105d6565b6040516101d79190611969565b60405180910390f35b6101fa60048036038101906101f591906112c2565b6105df565b604051610207919061173a565b60405180910390f35b61022a6004803603810190610225919061120e565b61068b565b604051610237919061194e565b60405180910390f35b6102486106d3565b005b61025261075b565b60405161025f919061171f565b60405180910390f35b610270610785565b60405161027d91906117ec565b60405180910390f35b6102a0600480360381019061029b9190611376565b610817565b6040516102ad919061171f565b60405180910390f35b6102d060048036038101906102cb91906112c2565b610886565b6040516102dd919061173a565b60405180910390f35b61030060048036038101906102fb91906113ca565b610971565b60405161030f93929190611770565b60405180910390f35b610332600480360381019061032d91906112c2565b6109d9565b60405161033f919061173a565b60405180910390f35b610362600480360381019061035d919061140b565b6109f7565b60405161036f919061173a565b60405180910390f35b610392600480360381019061038d91906112fe565b610a5e565b60405161039f9190611755565b60405180910390f35b6103c260048036038101906103bd9190611237565b610a94565b6040516103cf919061194e565b60405180910390f35b6103f260048036038101906103ed919061120e565b610b1b565b005b61040e6004803603810190610409919061134d565b610c13565b60405161041b9190611755565b60405180910390f35b60606003805461043390611af8565b80601f016020809104026020016040519081016040528092919081815260200182805461045f90611af8565b80156104ac5780601f10610481576101008083540402835291602001916104ac565b820191906000526020600020905b81548152906001019060200180831161048f57829003601f168201915b5050505050905090565b60006104ca6104c3610c43565b8484610c4b565b6001905092915050565b6000600254905090565b60006104eb848484610e16565b6000600160008673ffffffffffffffffffffffffffffffffffffffff1673ffffffffffffffffffffffffffffffffffffffff1681526020019081526020016000206000610536610c43565b73ffffffffffffffffffffffffffffffffffffffff1673ffffffffffffffffffffffffffffffffffffffff168152602001908152602001600020549050828110156105b6576040517f08c379a00000000000000000000000000000000000000000000000000000000081526004016105ad9061188e565b60405180910390fd5b6105ca856105c2610c43565b858403610c4b565b60019150509392505050565b60006012905090565b60006106816105ec610c43565b8484600160006105fa610c43565b73ffffffffffffffffffffffffffffffffffffffff1673ffffffffffffffffffffffffffffffffffffffff16815260200190815260200160002060008873ffffffffffffffffffffffffffffffffffffffff1673ffffffffffffffffffffffffffffffffffffffff1681526020019081526020016000205461067c9190611a01565b610c4b565b6001905092915050565b60008060008373ffffffffffffffffffffffffffffffffffffffff1673ffffffffffffffffffffffffffffffffffffffff168152602001908152602001600020549050919050565b6106db610c43565b73ffffffffffffffffffffffffffffffffffffffff166106f961075b565b73ffffffffffffffffffffffffffffffffffffffff161461074f576040517f08c379a0000000000000000000000000000000000000000000000000000000008152600401610746906118ae565b60405180910390fd5b6107596000611097565b565b6000600560009054906101000a900473ffffffffffffffffffffffffffffffffffffffff16905090565b60606004805461079490611af8565b80601f01602080910402602001604051908101604052809291908181526020018280546107c090611af8565b801561080d5780601f106107e25761010080835404028352916020019161080d565b820191906000526020600020905b8154815290600101906020018083116107f057829003601f168201915b5050505050905090565b60008060008061082685610971565b9250925092506001868285856040516000815260200160405260405161084f94939291906117a7565b6020604051602081039080840390855afa158015610871573d6000803e3d6000fd5b50505060206040510351935050505092915050565b60008060016000610895610c43565b73ffffffffffffffffffffffffffffffffffffffff1673ffffffffffffffffffffffffffffffffffffffff16815260200190815260200160002060008573ffffffffffffffffffffffffffffffffffffffff1673ffffffffffffffffffffffffffffffffffffffff16815260200190815260200160002054905082811015610952576040517f08c379a00000000000000000000000000000000000000000000000000000000081526004016109499061192e565b60405180910390fd5b61096661095d610c43565b85858403610c4b565b600191505092915050565b600080600060418451146109ba576040517f08c379a00000000000000000000000000000000000000000000000000000000081526004016109b19061190e565b60405180910390fd5b6020840151925060408401519150606084015160001a90509193909250565b60006109ed6109e6610c43565b8484610e16565b6001905092915050565b600080610a05338686610a5e565b90506000610a1282610c13565b9050610a1c61075b565b73ffffffffffffffffffffffffffffffffffffffff16610a3c8286610817565b73ffffffffffffffffffffffffffffffffffffffff1614925050509392505050565b6000838383604051602001610a75939291906116bc565b6040516020818303038152906040528051906020012090509392505050565b6000600160008473ffffffffffffffffffffffffffffffffffffffff1673ffffffffffffffffffffffffffffffffffffffff16815260200190815260200160002060008373ffffffffffffffffffffffffffffffffffffffff1673ffffffffffffffffffffffffffffffffffffffff16815260200190815260200160002054905092915050565b610b23610c43565b73ffffffffffffffffffffffffffffffffffffffff16610b4161075b565b73ffffffffffffffffffffffffffffffffffffffff1614610b97576040517f08c379a0000000000000000000000000000000000000000000000000000000008152600401610b8e906118ae565b60405180910390fd5b600073ffffffffffffffffffffffffffffffffffffffff168173ffffffffffffffffffffffffffffffffffffffff161415610c07576040517f08c379a0000000000000000000000000000000000000000000000000000000008152600401610bfe9061182e565b60405180910390fd5b610c1081611097565b50565b600081604051602001610c2691906116f9565b604051602081830303815290604052805190602001209050919050565b600033905090565b600073ffffffffffffffffffffffffffffffffffffffff168373ffffffffffffffffffffffffffffffffffffffff161415610cbb576040517f08c379a0000000000000000000000000000000000000000000000000000000008152600401610cb2906118ee565b60405180910390fd5b600073ffffffffffffffffffffffffffffffffffffffff168273ffffffffffffffffffffffffffffffffffffffff161415610d2b576040517f08c379a0000000000000000000000000000000000000000000000000000000008152600401610d229061184e565b60405180910390fd5b80600160008573ffffffffffffffffffffffffffffffffffffffff1673ffffffffffffffffffffffffffffffffffffffff16815260200190815260200160002060008473ffffffffffffffffffffffffffffffffffffffff1673ffffffffffffffffffffffffffffffffffffffff168152602001908152602001600020819055508173ffffffffffffffffffffffffffffffffffffffff168373ffffffffffffffffffffffffffffffffffffffff167f8c5be1e5ebec7d5bd14f71427d1e84f3dd0314c0f7b2291e5b200ac8c7c3b92583604051610e09919061194e565b60405180910390a3505050565b600073ffffffffffffffffffffffffffffffffffffffff168373ffffffffffffffffffffffffffffffffffffffff161415610e86576040517f08c379a0000000000000000000000000000000000000000000000000000000008152600401610e7d906118ce565b60405180910390fd5b600073ffffffffffffffffffffffffffffffffffffffff168273ffffffffffffffffffffffffffffffffffffffff161415610ef6576040517f08c379a0000000000000000000000000000000000000000000000000000000008152600401610eed9061180e565b60405180910390fd5b610f0183838361115d565b60008060008573ffffffffffffffffffffffffffffffffffffffff1673ffffffffffffffffffffffffffffffffffffffff16815260200190815260200160002054905081811015610f87576040517f08c379a0000000000000000000000000000000000000000000000000000000008152600401610f7e9061186e565b60405180910390fd5b8181036000808673ffffffffffffffffffffffffffffffffffffffff1673ffffffffffffffffffffffffffffffffffffffff16815260200190815260200160002081905550816000808573ffffffffffffffffffffffffffffffffffffffff1673ffffffffffffffffffffffffffffffffffffffff168152602001908152602001600020600082825461101a9190611a01565b925050819055508273ffffffffffffffffffffffffffffffffffffffff168473ffffffffffffffffffffffffffffffffffffffff167fddf252ad1be2c89b69c2b068fc378daa952ba7f163c4a11628f55a4df523b3ef8460405161107e919061194e565b60405180910390a3611091848484611162565b50505050565b6000600560009054906101000a900473ffffffffffffffffffffffffffffffffffffffff16905081600560006101000a81548173ffffffffffffffffffffffffffffffffffffffff021916908373ffffffffffffffffffffffffffffffffffffffff1602179055508173ffffffffffffffffffffffffffffffffffffffff168173ffffffffffffffffffffffffffffffffffffffff167f8be0079c531659141344cd1fd0a4f28419497f9722a3daafe3b4186f6b6457e060405160405180910390a35050565b505050565b505050565b600061117a611175846119a9565b611984565b90508281526020810184848401111561119257600080fd5b61119d848285611ab6565b509392505050565b6000813590506111b481611f31565b92915050565b6000813590506111c981611f48565b92915050565b600082601f8301126111e057600080fd5b81356111f0848260208601611167565b91505092915050565b60008135905061120881611f5f565b92915050565b60006020828403121561122057600080fd5b600061122e848285016111a5565b91505092915050565b6000806040838503121561124a57600080fd5b6000611258858286016111a5565b9250506020611269858286016111a5565b9150509250929050565b60008060006060848603121561128857600080fd5b6000611296868287016111a5565b93505060206112a7868287016111a5565b92505060406112b8868287016111f9565b9150509250925092565b600080604083850312156112d557600080fd5b60006112e3858286016111a5565b92505060206112f4858286016111f9565b9150509250929050565b60008060006060848603121561131357600080fd5b6000611321868287016111a5565b9350506020611332868287016111f9565b9250506040611343868287016111f9565b9150509250925092565b60006020828403121561135f57600080fd5b600061136d848285016111ba565b91505092915050565b6000806040838503121561138957600080fd5b6000611397858286016111ba565b925050602083013567ffffffffffffffff8111156113b457600080fd5b6113c0858286016111cf565b9150509250929050565b6000602082840312156113dc57600080fd5b600082013567ffffffffffffffff8111156113f657600080fd5b611402848285016111cf565b91505092915050565b60008060006060848603121561142057600080fd5b600061142e868287016111f9565b935050602061143f868287016111f9565b925050604084013567ffffffffffffffff81111561145c57600080fd5b611468868287016111cf565b9150509250925092565b61147b81611a57565b82525050565b61149261148d82611a57565b611b5b565b82525050565b6114a181611a69565b82525050565b6114b081611a75565b82525050565b6114c76114c282611a75565b611b6d565b82525050565b60006114d8826119da565b6114e281856119e5565b93506114f2818560208601611ac5565b6114fb81611c20565b840191505092915050565b60006115136023836119e5565b915061151e82611c3e565b604082019050919050565b6000611536601c836119f6565b915061154182611c8d565b601c82019050919050565b60006115596026836119e5565b915061156482611cb6565b604082019050919050565b600061157c6022836119e5565b915061158782611d05565b604082019050919050565b600061159f6026836119e5565b91506115aa82611d54565b604082019050919050565b60006115c26028836119e5565b91506115cd82611da3565b604082019050919050565b60006115e56020836119e5565b91506115f082611df2565b602082019050919050565b60006116086025836119e5565b915061161382611e1b565b604082019050919050565b600061162b6024836119e5565b915061163682611e6a565b604082019050919050565b600061164e6018836119e5565b915061165982611eb9565b602082019050919050565b60006116716025836119e5565b915061167c82611ee2565b604082019050919050565b61169081611a9f565b82525050565b6116a76116a282611a9f565b611b89565b82525050565b6116b681611aa9565b82525050565b60006116c88286611481565b6014820191506116d88285611696565b6020820191506116e88284611696565b602082019150819050949350505050565b600061170482611529565b915061171082846114b6565b60208201915081905092915050565b60006020820190506117346000830184611472565b92915050565b600060208201905061174f6000830184611498565b92915050565b600060208201905061176a60008301846114a7565b92915050565b600060608201905061178560008301866114a7565b61179260208301856114a7565b61179f60408301846116ad565b949350505050565b60006080820190506117bc60008301876114a7565b6117c960208301866116ad565b6117d660408301856114a7565b6117e360608301846114a7565b95945050505050565b6000602082019050818103600083015261180681846114cd565b905092915050565b6000602082019050818103600083015261182781611506565b9050919050565b600060208201905081810360008301526118478161154c565b9050919050565b600060208201905081810360008301526118678161156f565b9050919050565b6000602082019050818103600083015261188781611592565b9050919050565b600060208201905081810360008301526118a7816115b5565b9050919050565b600060208201905081810360008301526118c7816115d8565b9050919050565b600060208201905081810360008301526118e7816115fb565b9050919050565b600060208201905081810360008301526119078161161e565b9050919050565b6000602082019050818103600083015261192781611641565b9050919050565b6000602082019050818103600083015261194781611664565b9050919050565b60006020820190506119636000830184611687565b92915050565b600060208201905061197e60008301846116ad565b92915050565b600061198e61199f565b905061199a8282611b2a565b919050565b6000604051905090565b600067ffffffffffffffff8211156119c4576119c3611bf1565b5b6119cd82611c20565b9050602081019050919050565b600081519050919050565b600082825260208201905092915050565b600081905092915050565b6000611a0c82611a9f565b9150611a1783611a9f565b9250827fffffffffffffffffffffffffffffffffffffffffffffffffffffffffffffffff03821115611a4c57611a4b611b93565b5b828201905092915050565b6000611a6282611a7f565b9050919050565b60008115159050919050565b6000819050919050565b600073ffffffffffffffffffffffffffffffffffffffff82169050919050565b6000819050919050565b600060ff82169050919050565b82818337600083830152505050565b60005b83811015611ae3578082015181840152602081019050611ac8565b83811115611af2576000848401525b50505050565b60006002820490506001821680611b1057607f821691505b60208210811415611b2457611b23611bc2565b5b50919050565b611b3382611c20565b810181811067ffffffffffffffff82111715611b5257611b51611bf1565b5b80604052505050565b6000611b6682611b77565b9050919050565b6000819050919050565b6000611b8282611c31565b9050919050565b6000819050919050565b7f4e487b7100000000000000000000000000000000000000000000000000000000600052601160045260246000fd5b7f4e487b7100000000000000000000000000000000000000000000000000000000600052602260045260246000fd5b7f4e487b7100000000000000000000000000000000000000000000000000000000600052604160045260246000fd5b6000601f19601f8301169050919050565b60008160601b9050919050565b7f45524332303a207472616e7366657220746f20746865207a65726f206164647260008201527f6573730000000000000000000000000000000000000000000000000000000000602082015250565b7f19457468657265756d205369676e6564204d6573736167653a0a333200000000600082015250565b7f4f776e61626c653a206e6577206f776e657220697320746865207a65726f206160008201527f6464726573730000000000000000000000000000000000000000000000000000602082015250565b7f45524332303a20617070726f766520746f20746865207a65726f20616464726560008201527f7373000000000000000000000000000000000000000000000000000000000000602082015250565b7f45524332303a207472616e7366657220616d6f756e742065786365656473206260008201527f616c616e63650000000000000000000000000000000000000000000000000000602082015250565b7f45524332303a207472616e7366657220616d6f756e742065786365656473206160008201527f6c6c6f77616e6365000000000000000000000000000000000000000000000000602082015250565b7f4f776e61626c653a2063616c6c6572206973206e6f7420746865206f776e6572600082015250565b7f45524332303a207472616e736665722066726f6d20746865207a65726f20616460008201527f6472657373000000000000000000000000000000000000000000000000000000602082015250565b7f45524332303a20617070726f76652066726f6d20746865207a65726f2061646460008201527f7265737300000000000000000000000000000000000000000000000000000000602082015250565b7f696e76616c6964207369676e6174757265206c656e6774680000000000000000600082015250565b7f45524332303a2064656372656173656420616c6c6f77616e63652062656c6f7760008201527f207a65726f000000000000000000000000000000000000000000000000000000602082015250565b611f3a81611a57565b8114611f4557600080fd5b50565b611f5181611a75565b8114611f5c57600080fd5b50565b611f6881611a9f565b8114611f7357600080fd5b5056fea26469706673582212200b5ee798d4e472bb1d923d3a9c0c373207a5a5135e28a02f8cda93680213c67164736f6c63430008040033",
  "linkReferences": {},
  "deployedLinkReferences": {}
}