{
  "_format": "hh-sol-artifact-1",
  "contractName": "Moonboi",
  "sourceName": "contracts/Moonboi.sol",
  "abi": [
    {
      "inputs": [],
      "stateMutability": "nonpayable",
      "type": "constructor"
    },
    {
      "anonymous": false,
      "inputs": [
        {
          "indexed": true,
          "internalType": "address",
          "name": "owner",
          "type": "address"
        },
        {
          "indexed": true,
          "internalType": "address",
          "name": "spender",
          "type": "address"
        },
        {
          "indexed": false,
          "internalType": "uint256",
          "name": "value",
          "type": "uint256"
        }
      ],
      "name": "Approval",
      "type": "event"
    },
    {
      "anonymous": false,
      "inputs": [
        {
          "indexed": true,
          "internalType": "address",
          "name": "previousOwner",
          "type": "address"
        },
        {
          "indexed": true,
          "internalType": "address",
          "name": "newOwner",
          "type": "address"
        }
      ],
      "name": "OwnershipTransferred",
      "type": "event"
    },
    {
      "anonymous": false,
      "inputs": [
        {
          "indexed": true,
          "internalType": "address",
          "name": "from",
          "type": "address"
        },
        {
          "indexed": true,
          "internalType": "address",
          "name": "to",
          "type": "address"
        },
        {
          "indexed": false,
          "internalType": "uint256",
          "name": "value",
          "type": "uint256"
        }
      ],
      "name": "Transfer",
      "type": "event"
    },
    {
      "inputs": [
        {
          "internalType": "address",
          "name": "owner",
          "type": "address"
        },
        {
          "internalType": "address",
          "name": "spender",
          "type": "address"
        }
      ],
      "name": "allowance",
      "outputs": [
        {
          "internalType": "uint256",
          "name": "",
          "type": "uint256"
        }
      ],
      "stateMutability": "view",
      "type": "function"
    },
    {
      "inputs": [
        {
          "internalType": "address",
          "name": "spender",
          "type": "address"
        },
        {
          "internalType": "uint256",
          "name": "amount",
          "type": "uint256"
        }
      ],
      "name": "approve",
      "outputs": [
        {
          "internalType": "bool",
          "name": "",
          "type": "bool"
        }
      ],
      "stateMutability": "nonpayable",
      "type": "function"
    },
    {
      "inputs": [
        {
          "internalType": "address",
          "name": "account",
          "type": "address"
        }
      ],
      "name": "balanceOf",
      "outputs": [
        {
          "internalType": "uint256",
          "name": "",
          "type": "uint256"
        }
      ],
      "stateMutability": "view",
      "type": "function"
    },
    {
      "inputs": [],
      "name": "decimals",
      "outputs": [
        {
          "internalType": "uint8",
          "name": "",
          "type": "uint8"
        }
      ],
      "stateMutability": "view",
      "type": "function"
    },
    {
      "inputs": [
        {
          "internalType": "address",
          "name": "spender",
          "type": "address"
        },
        {
          "internalType": "uint256",
          "name": "subtractedValue",
          "type": "uint256"
        }
      ],
      "name": "decreaseAllowance",
      "outputs": [
        {
          "internalType": "bool",
          "name": "",
          "type": "bool"
        }
      ],
      "stateMutability": "nonpayable",
      "type": "function"
    },
    {
      "inputs": [
        {
          "internalType": "bytes32",
          "name": "_messageHash",
          "type": "bytes32"
        }
      ],
      "name": "getEthSignedMessageHash",
      "outputs": [
        {
          "internalType": "bytes32",
          "name": "",
          "type": "bytes32"
        }
      ],
      "stateMutability": "pure",
      "type": "function"
    },
    {
      "inputs": [
        {
          "internalType": "address",
          "name": "_to",
          "type": "address"
        },
        {
          "internalType": "uint256",
          "name": "_amount",
          "type": "uint256"
        },
        {
          "internalType": "uint256",
          "name": "_nonce",
          "type": "uint256"
        }
      ],
      "name": "getMessageHash",
      "outputs": [
        {
          "internalType": "bytes32",
          "name": "",
          "type": "bytes32"
        }
      ],
      "stateMutability": "view",
      "type": "function"
    },
    {
      "inputs": [
        {
          "internalType": "address",
          "name": "spender",
          "type": "address"
        },
        {
          "internalType": "uint256",
          "name": "addedValue",
          "type": "uint256"
        }
      ],
      "name": "increaseAllowance",
      "outputs": [
        {
          "internalType": "bool",
          "name": "",
          "type": "bool"
        }
      ],
      "stateMutability": "nonpayable",
      "type": "function"
    },
    {
      "inputs": [],
      "name": "name",
      "outputs": [
        {
          "internalType": "string",
          "name": "",
          "type": "string"
        }
      ],
      "stateMutability": "view",
      "type": "function"
    },
    {
      "inputs": [],
      "name": "owner",
      "outputs": [
        {
          "internalType": "address",
          "name": "",
          "type": "address"
        }
      ],
      "stateMutability": "view",
      "type": "function"
    },
    {
      "inputs": [
        {
          "internalType": "bytes32",
          "name": "_ethSignedMessageHash",
          "type": "bytes32"
        },
        {
          "internalType": "bytes",
          "name": "_signature",
          "type": "bytes"
        }
      ],
      "name": "recoverSigner",
      "outputs": [
        {
          "internalType": "address",
          "name": "",
          "type": "address"
        }
      ],
      "stateMutability": "pure",
      "type": "function"
    },
    {
      "inputs": [],
      "name": "renounceOwnership",
      "outputs": [],
      "stateMutability": "nonpayable",
      "type": "function"
    },
    {
      "inputs": [
        {
          "internalType": "bytes",
          "name": "sig",
          "type": "bytes"
        }
      ],
      "name": "splitSignature",
      "outputs": [
        {
          "internalType": "bytes32",
          "name": "r",
          "type": "bytes32"
        },
        {
          "internalType": "bytes32",
          "name": "s",
          "type": "bytes32"
        },
        {
          "internalType": "uint8",
          "name": "v",
          "type": "uint8"
        }
      ],
      "stateMutability": "pure",
      "type": "function"
    },
    {
      "inputs": [],
      "name": "symbol",
      "outputs": [
        {
          "internalType": "string",
          "name": "",
          "type": "string"
        }
      ],
      "stateMutability": "view",
      "type": "function"
    },
    {
      "inputs": [],
      "name": "totalSupply",
      "outputs": [
        {
          "internalType": "uint256",
          "name": "",
          "type": "uint256"
        }
      ],
      "stateMutability": "view",
      "type": "function"
    },
    {
      "inputs": [
        {
          "internalType": "address",
          "name": "recipient",
          "type": "address"
        },
        {
          "internalType": "uint256",
          "name": "amount",
          "type": "uint256"
        }
      ],
      "name": "transfer",
      "outputs": [
        {
          "internalType": "bool",
          "name": "",
          "type": "bool"
        }
      ],
      "stateMutability": "nonpayable",
      "type": "function"
    },
    {
      "inputs": [
        {
          "internalType": "address",
          "name": "sender",
          "type": "address"
        },
        {
          "internalType": "address",
          "name": "recipient",
          "type": "address"
        },
        {
          "internalType": "uint256",
          "name": "amount",
          "type": "uint256"
        }
      ],
      "name": "transferFrom",
      "outputs": [
        {
          "internalType": "bool",
          "name": "",
          "type": "bool"
        }
      ],
      "stateMutability": "nonpayable",
      "type": "function"
    },
    {
      "inputs": [
        {
          "internalType": "address",
          "name": "newOwner",
          "type": "address"
        }
      ],
      "name": "transferOwnership",
      "outputs": [],
      "stateMutability": "nonpayable",
      "type": "function"
    },
    {
      "inputs": [
        {
          "internalType": "address",
          "name": "_signer",
          "type": "address"
        },
        {
          "internalType": "address",
          "name": "_to",
          "type": "address"
        },
        {
          "internalType": "uint256",
          "name": "_amount",
          "type": "uint256"
        },
        {
          "internalType": "uint256",
          "name": "_nonce",
          "type": "uint256"
        },
        {
          "internalType": "bytes",
          "name": "signature",
          "type": "bytes"
        }
      ],
      "name": "verify",
      "outputs": [
        {
          "internalType": "bool",
          "name": "",
          "type": "bool"
        }
      ],
      "stateMutability": "view",
      "type": "function"
    }
  ],
  "bytecode": "0x60806040523480156200001157600080fd5b506040518060400160405280600d81526020017f4d6f6f6e626f6920546f6b656e000000000000000000000000000000000000008152506040518060400160405280600381526020017f4d42540000000000000000000000000000000000000000000000000000000000815250816003908051906020019062000096929190620001a6565b508060049080519060200190620000af929190620001a6565b505050620000d2620000c6620000d860201b60201c565b620000e060201b60201c565b620002bb565b600033905090565b6000600560009054906101000a900473ffffffffffffffffffffffffffffffffffffffff16905081600560006101000a81548173ffffffffffffffffffffffffffffffffffffffff021916908373ffffffffffffffffffffffffffffffffffffffff1602179055508173ffffffffffffffffffffffffffffffffffffffff168173ffffffffffffffffffffffffffffffffffffffff167f8be0079c531659141344cd1fd0a4f28419497f9722a3daafe3b4186f6b6457e060405160405180910390a35050565b828054620001b49062000256565b90600052602060002090601f016020900481019282620001d8576000855562000224565b82601f10620001f357805160ff191683800117855562000224565b8280016001018555821562000224579182015b828111156200022357825182559160200191906001019062000206565b5b50905062000233919062000237565b5090565b5b808211156200025257600081600090555060010162000238565b5090565b600060028204905060018216806200026f57607f821691505b602082108114156200028657620002856200028c565b5b50919050565b7f4e487b7100000000000000000000000000000000000000000000000000000000600052602260045260246000fd5b611fcf80620002cb6000396000f3fe608060405234801561001057600080fd5b50600436106101215760003560e01c806395d89b41116100ad578063cffc18eb11610071578063cffc18eb14610348578063d2b0737b14610378578063dd62ed3e146103a8578063f2fde38b146103d8578063fa540801146103f457610121565b806395d89b411461026857806397aba7f914610286578063a457c2d7146102b6578063a7bb5803146102e6578063a9059cbb1461031857610121565b8063313ce567116100f4578063313ce567146101c257806339509351146101e057806370a0823114610210578063715018a6146102405780638da5cb5b1461024a57610121565b806306fdde0314610126578063095ea7b31461014457806318160ddd1461017457806323b872dd14610192575b600080fd5b61012e610424565b60405161013b919061180f565b60405180910390f35b61015e6004803603810190610159919061134c565b6104b6565b60405161016b919061175d565b60405180910390f35b61017c6104d4565b6040516101899190611971565b60405180910390f35b6101ac60048036038101906101a7919061126e565b6104de565b6040516101b9919061175d565b60405180910390f35b6101ca6105d6565b6040516101d7919061198c565b60405180910390f35b6101fa60048036038101906101f5919061134c565b6105df565b604051610207919061175d565b60405180910390f35b61022a60048036038101906102259190611209565b61068b565b6040516102379190611971565b60405180910390f35b6102486106d3565b005b61025261075b565b60405161025f9190611742565b60405180910390f35b610270610785565b60405161027d919061180f565b60405180910390f35b6102a0600480360381019061029b9190611400565b610817565b6040516102ad9190611742565b60405180910390f35b6102d060048036038101906102cb919061134c565b610886565b6040516102dd919061175d565b60405180910390f35b61030060048036038101906102fb9190611454565b610971565b60405161030f93929190611793565b60405180910390f35b610332600480360381019061032d919061134c565b6109d9565b60405161033f919061175d565b60405180910390f35b610362600480360381019061035d91906112bd565b6109f7565b60405161036f919061175d565b60405180910390f35b610392600480360381019061038d9190611388565b610a59565b60405161039f9190611778565b60405180910390f35b6103c260048036038101906103bd9190611232565b610a8f565b6040516103cf9190611971565b60405180910390f35b6103f260048036038101906103ed9190611209565b610b16565b005b61040e600480360381019061040991906113d7565b610c0e565b60405161041b9190611778565b60405180910390f35b60606003805461043390611b1b565b80601f016020809104026020016040519081016040528092919081815260200182805461045f90611b1b565b80156104ac5780601f10610481576101008083540402835291602001916104ac565b820191906000526020600020905b81548152906001019060200180831161048f57829003601f168201915b5050505050905090565b60006104ca6104c3610c3e565b8484610c46565b6001905092915050565b6000600254905090565b60006104eb848484610e11565b6000600160008673ffffffffffffffffffffffffffffffffffffffff1673ffffffffffffffffffffffffffffffffffffffff1681526020019081526020016000206000610536610c3e565b73ffffffffffffffffffffffffffffffffffffffff1673ffffffffffffffffffffffffffffffffffffffff168152602001908152602001600020549050828110156105b6576040517f08c379a00000000000000000000000000000000000000000000000000000000081526004016105ad906118b1565b60405180910390fd5b6105ca856105c2610c3e565b858403610c46565b60019150509392505050565b60006012905090565b60006106816105ec610c3e565b8484600160006105fa610c3e565b73ffffffffffffffffffffffffffffffffffffffff1673ffffffffffffffffffffffffffffffffffffffff16815260200190815260200160002060008873ffffffffffffffffffffffffffffffffffffffff1673ffffffffffffffffffffffffffffffffffffffff1681526020019081526020016000205461067c9190611a24565b610c46565b6001905092915050565b60008060008373ffffffffffffffffffffffffffffffffffffffff1673ffffffffffffffffffffffffffffffffffffffff168152602001908152602001600020549050919050565b6106db610c3e565b73ffffffffffffffffffffffffffffffffffffffff166106f961075b565b73ffffffffffffffffffffffffffffffffffffffff161461074f576040517f08c379a0000000000000000000000000000000000000000000000000000000008152600401610746906118d1565b60405180910390fd5b6107596000611092565b565b6000600560009054906101000a900473ffffffffffffffffffffffffffffffffffffffff16905090565b60606004805461079490611b1b565b80601f01602080910402602001604051908101604052809291908181526020018280546107c090611b1b565b801561080d5780601f106107e25761010080835404028352916020019161080d565b820191906000526020600020905b8154815290600101906020018083116107f057829003601f168201915b5050505050905090565b60008060008061082685610971565b9250925092506001868285856040516000815260200160405260405161084f94939291906117ca565b6020604051602081039080840390855afa158015610871573d6000803e3d6000fd5b50505060206040510351935050505092915050565b60008060016000610895610c3e565b73ffffffffffffffffffffffffffffffffffffffff1673ffffffffffffffffffffffffffffffffffffffff16815260200190815260200160002060008573ffffffffffffffffffffffffffffffffffffffff1673ffffffffffffffffffffffffffffffffffffffff16815260200190815260200160002054905082811015610952576040517f08c379a000000000000000000000000000000000000000000000000000000000815260040161094990611951565b60405180910390fd5b61096661095d610c3e565b85858403610c46565b600191505092915050565b600080600060418451146109ba576040517f08c379a00000000000000000000000000000000000000000000000000000000081526004016109b190611931565b60405180910390fd5b6020840151925060408401519150606084015160001a90509193909250565b60006109ed6109e6610c3e565b8484610e11565b6001905092915050565b600080610a05868686610a59565b90506000610a1282610c0e565b90508773ffffffffffffffffffffffffffffffffffffffff16610a358286610817565b73ffffffffffffffffffffffffffffffffffffffff16149250505095945050505050565b6000838383604051602001610a70939291906116df565b6040516020818303038152906040528051906020012090509392505050565b6000600160008473ffffffffffffffffffffffffffffffffffffffff1673ffffffffffffffffffffffffffffffffffffffff16815260200190815260200160002060008373ffffffffffffffffffffffffffffffffffffffff1673ffffffffffffffffffffffffffffffffffffffff16815260200190815260200160002054905092915050565b610b1e610c3e565b73ffffffffffffffffffffffffffffffffffffffff16610b3c61075b565b73ffffffffffffffffffffffffffffffffffffffff1614610b92576040517f08c379a0000000000000000000000000000000000000000000000000000000008152600401610b89906118d1565b60405180910390fd5b600073ffffffffffffffffffffffffffffffffffffffff168173ffffffffffffffffffffffffffffffffffffffff161415610c02576040517f08c379a0000000000000000000000000000000000000000000000000000000008152600401610bf990611851565b60405180910390fd5b610c0b81611092565b50565b600081604051602001610c21919061171c565b604051602081830303815290604052805190602001209050919050565b600033905090565b600073ffffffffffffffffffffffffffffffffffffffff168373ffffffffffffffffffffffffffffffffffffffff161415610cb6576040517f08c379a0000000000000000000000000000000000000000000000000000000008152600401610cad90611911565b60405180910390fd5b600073ffffffffffffffffffffffffffffffffffffffff168273ffffffffffffffffffffffffffffffffffffffff161415610d26576040517f08c379a0000000000000000000000000000000000000000000000000000000008152600401610d1d90611871565b60405180910390fd5b80600160008573ffffffffffffffffffffffffffffffffffffffff1673ffffffffffffffffffffffffffffffffffffffff16815260200190815260200160002060008473ffffffffffffffffffffffffffffffffffffffff1673ffffffffffffffffffffffffffffffffffffffff168152602001908152602001600020819055508173ffffffffffffffffffffffffffffffffffffffff168373ffffffffffffffffffffffffffffffffffffffff167f8c5be1e5ebec7d5bd14f71427d1e84f3dd0314c0f7b2291e5b200ac8c7c3b92583604051610e049190611971565b60405180910390a3505050565b600073ffffffffffffffffffffffffffffffffffffffff168373ffffffffffffffffffffffffffffffffffffffff161415610e81576040517f08c379a0000000000000000000000000000000000000000000000000000000008152600401610e78906118f1565b60405180910390fd5b600073ffffffffffffffffffffffffffffffffffffffff168273ffffffffffffffffffffffffffffffffffffffff161415610ef1576040517f08c379a0000000000000000000000000000000000000000000000000000000008152600401610ee890611831565b60405180910390fd5b610efc838383611158565b60008060008573ffffffffffffffffffffffffffffffffffffffff1673ffffffffffffffffffffffffffffffffffffffff16815260200190815260200160002054905081811015610f82576040517f08c379a0000000000000000000000000000000000000000000000000000000008152600401610f7990611891565b60405180910390fd5b8181036000808673ffffffffffffffffffffffffffffffffffffffff1673ffffffffffffffffffffffffffffffffffffffff16815260200190815260200160002081905550816000808573ffffffffffffffffffffffffffffffffffffffff1673ffffffffffffffffffffffffffffffffffffffff16815260200190815260200160002060008282546110159190611a24565b925050819055508273ffffffffffffffffffffffffffffffffffffffff168473ffffffffffffffffffffffffffffffffffffffff167fddf252ad1be2c89b69c2b068fc378daa952ba7f163c4a11628f55a4df523b3ef846040516110799190611971565b60405180910390a361108c84848461115d565b50505050565b6000600560009054906101000a900473ffffffffffffffffffffffffffffffffffffffff16905081600560006101000a81548173ffffffffffffffffffffffffffffffffffffffff021916908373ffffffffffffffffffffffffffffffffffffffff1602179055508173ffffffffffffffffffffffffffffffffffffffff168173ffffffffffffffffffffffffffffffffffffffff167f8be0079c531659141344cd1fd0a4f28419497f9722a3daafe3b4186f6b6457e060405160405180910390a35050565b505050565b505050565b6000611175611170846119cc565b6119a7565b90508281526020810184848401111561118d57600080fd5b611198848285611ad9565b509392505050565b6000813590506111af81611f54565b92915050565b6000813590506111c481611f6b565b92915050565b600082601f8301126111db57600080fd5b81356111eb848260208601611162565b91505092915050565b60008135905061120381611f82565b92915050565b60006020828403121561121b57600080fd5b6000611229848285016111a0565b91505092915050565b6000806040838503121561124557600080fd5b6000611253858286016111a0565b9250506020611264858286016111a0565b9150509250929050565b60008060006060848603121561128357600080fd5b6000611291868287016111a0565b93505060206112a2868287016111a0565b92505060406112b3868287016111f4565b9150509250925092565b600080600080600060a086880312156112d557600080fd5b60006112e3888289016111a0565b95505060206112f4888289016111a0565b9450506040611305888289016111f4565b9350506060611316888289016111f4565b925050608086013567ffffffffffffffff81111561133357600080fd5b61133f888289016111ca565b9150509295509295909350565b6000806040838503121561135f57600080fd5b600061136d858286016111a0565b925050602061137e858286016111f4565b9150509250929050565b60008060006060848603121561139d57600080fd5b60006113ab868287016111a0565b93505060206113bc868287016111f4565b92505060406113cd868287016111f4565b9150509250925092565b6000602082840312156113e957600080fd5b60006113f7848285016111b5565b91505092915050565b6000806040838503121561141357600080fd5b6000611421858286016111b5565b925050602083013567ffffffffffffffff81111561143e57600080fd5b61144a858286016111ca565b9150509250929050565b60006020828403121561146657600080fd5b600082013567ffffffffffffffff81111561148057600080fd5b61148c848285016111ca565b91505092915050565b61149e81611a7a565b82525050565b6114b56114b082611a7a565b611b7e565b82525050565b6114c481611a8c565b82525050565b6114d381611a98565b82525050565b6114ea6114e582611a98565b611b90565b82525050565b60006114fb826119fd565b6115058185611a08565b9350611515818560208601611ae8565b61151e81611c43565b840191505092915050565b6000611536602383611a08565b915061154182611c61565b604082019050919050565b6000611559601c83611a19565b915061156482611cb0565b601c82019050919050565b600061157c602683611a08565b915061158782611cd9565b604082019050919050565b600061159f602283611a08565b91506115aa82611d28565b604082019050919050565b60006115c2602683611a08565b91506115cd82611d77565b604082019050919050565b60006115e5602883611a08565b91506115f082611dc6565b604082019050919050565b6000611608602083611a08565b915061161382611e15565b602082019050919050565b600061162b602583611a08565b915061163682611e3e565b604082019050919050565b600061164e602483611a08565b915061165982611e8d565b604082019050919050565b6000611671601883611a08565b915061167c82611edc565b602082019050919050565b6000611694602583611a08565b915061169f82611f05565b604082019050919050565b6116b381611ac2565b82525050565b6116ca6116c582611ac2565b611bac565b82525050565b6116d981611acc565b82525050565b60006116eb82866114a4565b6014820191506116fb82856116b9565b60208201915061170b82846116b9565b602082019150819050949350505050565b60006117278261154c565b915061173382846114d9565b60208201915081905092915050565b60006020820190506117576000830184611495565b92915050565b600060208201905061177260008301846114bb565b92915050565b600060208201905061178d60008301846114ca565b92915050565b60006060820190506117a860008301866114ca565b6117b560208301856114ca565b6117c260408301846116d0565b949350505050565b60006080820190506117df60008301876114ca565b6117ec60208301866116d0565b6117f960408301856114ca565b61180660608301846114ca565b95945050505050565b6000602082019050818103600083015261182981846114f0565b905092915050565b6000602082019050818103600083015261184a81611529565b9050919050565b6000602082019050818103600083015261186a8161156f565b9050919050565b6000602082019050818103600083015261188a81611592565b9050919050565b600060208201905081810360008301526118aa816115b5565b9050919050565b600060208201905081810360008301526118ca816115d8565b9050919050565b600060208201905081810360008301526118ea816115fb565b9050919050565b6000602082019050818103600083015261190a8161161e565b9050919050565b6000602082019050818103600083015261192a81611641565b9050919050565b6000602082019050818103600083015261194a81611664565b9050919050565b6000602082019050818103600083015261196a81611687565b9050919050565b600060208201905061198660008301846116aa565b92915050565b60006020820190506119a160008301846116d0565b92915050565b60006119b16119c2565b90506119bd8282611b4d565b919050565b6000604051905090565b600067ffffffffffffffff8211156119e7576119e6611c14565b5b6119f082611c43565b9050602081019050919050565b600081519050919050565b600082825260208201905092915050565b600081905092915050565b6000611a2f82611ac2565b9150611a3a83611ac2565b9250827fffffffffffffffffffffffffffffffffffffffffffffffffffffffffffffffff03821115611a6f57611a6e611bb6565b5b828201905092915050565b6000611a8582611aa2565b9050919050565b60008115159050919050565b6000819050919050565b600073ffffffffffffffffffffffffffffffffffffffff82169050919050565b6000819050919050565b600060ff82169050919050565b82818337600083830152505050565b60005b83811015611b06578082015181840152602081019050611aeb565b83811115611b15576000848401525b50505050565b60006002820490506001821680611b3357607f821691505b60208210811415611b4757611b46611be5565b5b50919050565b611b5682611c43565b810181811067ffffffffffffffff82111715611b7557611b74611c14565b5b80604052505050565b6000611b8982611b9a565b9050919050565b6000819050919050565b6000611ba582611c54565b9050919050565b6000819050919050565b7f4e487b7100000000000000000000000000000000000000000000000000000000600052601160045260246000fd5b7f4e487b7100000000000000000000000000000000000000000000000000000000600052602260045260246000fd5b7f4e487b7100000000000000000000000000000000000000000000000000000000600052604160045260246000fd5b6000601f19601f8301169050919050565b60008160601b9050919050565b7f45524332303a207472616e7366657220746f20746865207a65726f206164647260008201527f6573730000000000000000000000000000000000000000000000000000000000602082015250565b7f19457468657265756d205369676e6564204d6573736167653a0a333200000000600082015250565b7f4f776e61626c653a206e6577206f776e657220697320746865207a65726f206160008201527f6464726573730000000000000000000000000000000000000000000000000000602082015250565b7f45524332303a20617070726f766520746f20746865207a65726f20616464726560008201527f7373000000000000000000000000000000000000000000000000000000000000602082015250565b7f45524332303a207472616e7366657220616d6f756e742065786365656473206260008201527f616c616e63650000000000000000000000000000000000000000000000000000602082015250565b7f45524332303a207472616e7366657220616d6f756e742065786365656473206160008201527f6c6c6f77616e6365000000000000000000000000000000000000000000000000602082015250565b7f4f776e61626c653a2063616c6c6572206973206e6f7420746865206f776e6572600082015250565b7f45524332303a207472616e736665722066726f6d20746865207a65726f20616460008201527f6472657373000000000000000000000000000000000000000000000000000000602082015250565b7f45524332303a20617070726f76652066726f6d20746865207a65726f2061646460008201527f7265737300000000000000000000000000000000000000000000000000000000602082015250565b7f696e76616c6964207369676e6174757265206c656e6774680000000000000000600082015250565b7f45524332303a2064656372656173656420616c6c6f77616e63652062656c6f7760008201527f207a65726f000000000000000000000000000000000000000000000000000000602082015250565b611f5d81611a7a565b8114611f6857600080fd5b50565b611f7481611a98565b8114611f7f57600080fd5b50565b611f8b81611ac2565b8114611f9657600080fd5b5056fea2646970667358221220dd01c5709e4c5e8e6dd939e0eb76bdb731cd025149a9a5bc21e637a70e3604e464736f6c63430008040033",
  "linkReferences": {},
  "deployedLinkReferences": {}
}